:100000003DC0000005C4000054C0000052C0000004
:1000100050C000004EC00000D8C300004AC000001D
:1000200048C0000046C0000044C0000042C00000BC
:1000300040C0000001C400003CC000003AC0000005
:1000400038C0000036C0000034C0000032C00000DC
:1000500053C400002EC000002CC000002AC00000C5
:1000600028C0000026C0000024C0000022C00000FC
:1000700020C000001EC000001CC0000011241FBED4
:10008000CFEFD8E0DEBFCDBF12E0A0E0B1E0ECE101
:10009000FBE002C005900D92AA30B107D9F712E03B
:1000A000AAE0B2E001C01D92AD32B107E1F7E1D3A1
:1000B00033C5A6CFA8E1B0E0EFE5F0E08CC46983DA
:1000C0007A838B839C832D833E834F835887B9E04B
:1000D000EB2EF12CEC0EFD1ECE010196B7017BD26A
:1000E0008E010F5E1F4FCE010596B80174D229858F
:1000F000223008F47EC03989323010F4B8017CC057
:100100008A859A8989278A87243011F0223031F430
:10011000231709F06EC060E071E06EC0343039F42E
:100120001D861E861F86188A1C861B8604C03230D8
:1001300021F484E08987B7015FC02B853C858B89DA
:100140009C89281B390B3C872B87ED84FE840F8507
:100150001889AD88BE88CF88D88CEA14FB040C05BA
:100160001D0540F4EE0CFF1C001F111F21503040F4
:100170003C872B8720E030E040E050E080E090E0DA
:10018000A0E0B0E460E070E0EA14FB040C051D059B
:1001900040F0282B392B4A2B5B2BEA18FB080C0963
:1001A0001D09B695A79597958795EE0CFF1C001F26
:1001B000111F6F5F7F4F6F31710531F7DA01C90190
:1001C0008F779070A070B07080349105A105B10553
:1001D00061F427FD0AC0E114F1040105110529F0BD
:1001E000205C3F4F4F4F5F4F20782D873E874F87D2
:1001F000588BBE01675F7F4FCB0118D16896EAE04C
:1002000006C4ACE0B0E0E6E0F1E0EDC369837A83D8
:100210008B839C83CE010196BE016B5F7F4FDBD148
:100220008D81823061F1823050F1843021F48E81F1
:10023000882351F12EC02F81388537FD20C06E8173
:100240002F3131051CF06623F9F023C08EE190E0D8
:10025000821B930B29853A854B855C8504C0569596
:100260004795379527958A95D2F76623B1F0509533
:100270004095309521953F4F4F4F5F4F0EC020E086
:1002800030E040E050E009C02FEF3FEF4FEF5FE775
:1002900004C020E030E040E050E8B901CA012C96EB
:1002A000E2E0BDC3A8E0B0E0E7E5F1E094C37B0184
:1002B0008C01611571058105910519F482E089832E
:1002C0005FC083E089838EE1C82ED12CDC82CB8293
:1002D000ED82FE820F831887C801B70158D0FC0158
:1002E0003197F7FF3BC0222733272E1B3F0B5701C7
:1002F0006801022E04C0D694C794B794A7940A94B8
:10030000D2F740E050E060E070E081E090E0A0E0F3
:10031000B0E004C0880F991FAA1FBB1F2A95D2F70F
:100320000197A109B1098E219F21A023B123009734
:10033000A105B10521F041E050E060E070E04A29FC
:100340005B296C297D294D835E836F8378878EE1DD
:1003500090E08E1B9F0B9C838B8312C0309781F0A3
:100360000E2E04C0EE0CFF1C001F111F0A94D2F7C2
:10037000ED82FE820F831887CE1ADF0ADC82CB82E1
:100380001A82CE01019652D02896EAE040C3EF923D
:10039000FF920F931F937B018C0180E0E81680E0B1
:1003A000F80681E0080780E0180788F48FEFE81668
:1003B000F1040105110531F028F088E090E0A0E09B
:1003C000B0E017C080E090E0A0E0B0E012C080E0B4
:1003D000E81680E0F80680E0080781E0180728F0BA
:1003E00088E190E0A0E0B0E004C080E190E0A0E00F
:1003F000B0E020E230E040E050E0281B390B4A0B2F
:100400005B0B04C016950795F794E7948A95D2F78D
:10041000F701E85FFE4F8081281B3109410951092E
:10042000C9011F910F91FF90EF900895DF92EF9215
:10043000FF920F931F93FC01E480F58006811781E2
:10044000D1808081823048F480E090E0A0E1B0E08B
:10045000E82AF92A0A2B1B2BA5C0843009F49FC077
:10046000823021F4EE24FF24870105C0E114F10459
:100470000105110519F4E0E0F0E096C06281738196
:100480009FEF623879070CF05BC022E83FEF261B34
:10049000370B2A3131052CF020E030E040E050E00D
:1004A0002AC0B801A701022E04C07695679557951A
:1004B00047950A94D2F781E090E0A0E0B0E004C054
:1004C000880F991FAA1FBB1F2A95D2F70197A10970
:1004D000B1098E219F21A023B1230097A105B10569
:1004E00021F081E090E0A0E0B0E09A01AB01282B80
:1004F000392B4A2B5B2BDA01C9018F779070A070E2
:10050000B07080349105A105B10539F427FF09C009
:10051000205C3F4F4F4F5F4F04C0215C3F4F4F4F18
:100520005F4FE0E0F0E02030A0E03A07A0E04A07AB
:10053000A0E45A0710F0E1E0F0E079018A0127C059
:100540006038710564F5FB01E158FF4FD801C70120
:100550008F779070A070B07080349105A105B105BF
:1005600039F4E7FE0DC080E490E0A0E0B0E004C004
:100570008FE390E0A0E0B0E0E80EF91E0A1F1B1F19
:1005800017FF05C016950795F794E794319687E015
:1005900016950795F794E7948A95D1F705C0EE2450
:1005A000FF248701EFEFF0E06E2F679566276795D0
:1005B000902F9F77D794DD24D7948E2F8695492F3F
:1005C000462B582F5D29B701CA011F910F91FF904B
:1005D000EF90DF900895FC01DB0140815181228181
:1005E000622F6F7770E0221F2227221F9381892FAD
:1005F000880F822B282F30E0991F9927991F119679
:100600009C93119721153105A9F5411551056105F7
:10061000710511F482E037C082E89FEF13969C9336
:100620008E9312979A01AB0167E0220F331F441F8C
:10063000551F6A95D1F783E08C930DC0220F331FAD
:10064000441F551F12968D919C91139701971396F5
:100650009C938E931297203080E0380780E0480703
:1006600080E4580758F314962D933D934D935C9373
:10067000179708952F3F310579F44115510561050C
:10068000710519F484E08C93089564FF03C081E040
:100690008C9312C01C9210C02F57304013963C937D
:1006A0002E93129783E08C9387E0440F551F661FAB
:1006B000771F8A95D1F7706414964D935D936D936F
:1006C0007C9317970895AC018330910531F4672B23
:1006D00011F42B9A08952B980895672B59F42BB198
:1006E00081E090E002C0880F991F4A95E2F7282B1D
:1006F0002BB908952BB181E090E002C0880F991FBB
:100700004A95E2F7809582238BB908950F931F9342
:100710008C0187E090E0B801D6DF86E090E0B80178
:10072000D2DF85E090E0B801CEDF84E090E0B80150
:10073000CADF83E090E0B801C6DF1F910F910895F2
:10074000309908C081E080930B0283E090E061E083
:1007500070E006C010920B0283E090E060E070E071
:10076000B2CFAEE1B0E0A61BB70B21E030E002C093
:10077000220F331F8A95E2F7922F909540E050E0C8
:10078000FA01E15FFD4F4A175B071CF08081892366
:1007900002C08081822B80834F5F5F4F4E315105B5
:1007A00079F708950F931F93CF93DF938C01C0E0E7
:1007B000D0E0CE01B801D5DF2196C830D105C9F708
:1007C000DF91CF911F910F9108951F920F920FB655
:1007D0000F9211242F933F934F935F936F937F93C7
:1007E0008F939F93AF93BF93EF93FF93A9DFFF91F5
:1007F000EF91BF91AF919F918F917F916F915F9199
:100800004F913F912F910F900FBE0F901F90189511
:100810001F920F920FB60F9211248F938FEF82B910
:1008200010920A0210928500109284008F910F900E
:100830000FBE0F901F9018951F920F920FB60F9238
:1008400011248F93EF93FF9380910A02EFE0F2E07F
:10085000E80FF11D808182B980910A028F5F809339
:100860000A02FF91EF918F910F900FBE0F901F9092
:1008700018952FEF21B988E084B917B880EF8AB9AD
:1008800026B980916900836080936900E89A80911D
:10089000810088608093810080E094E190938900DA
:1008A0008093880080918100816080938100809195
:1008B0006F00826080936F0084E0809368002093D3
:1008C0006D001092C5008DE18093C40088E1809393
:1008D000C1008091C10080688093C100789430DFAE
:1008E00080E090E013DF87E090E061E070E0EBDE15
:1008F00080E090E057DFFFCF1F920F920FB60F926C
:1009000011240F931F932F933F934F935F936F93F4
:100910007F938F939F93AF93BF93CF93DF93EF9387
:10092000FF930091C6001091C600612F70E0613402
:10093000710549F480910E02853729F410920D0259
:1009400010920C0223C0C0910C02D0910D02809134
:100950000802C81BD109C830D10578F480E090E0C6
:10096000A1DC20E030E048E051E4A4DB63D049DCC6
:100970009B01AC01CE01B901F4DE80910C02909193
:100980000D02019690930D0280930C0210930E02BB
:100990008091C00085FFFCCF0093C600FF91EF91CE
:1009A000DF91CF91BF91AF919F918F917F916F9187
:1009B0005F914F913F912F911F910F910F900FBE1B
:1009C0000F901F9018952F923F924F925F926F92C7
:1009D0007F928F929F92AF92BF92CF92DF92EF92CF
:1009E000FF920F931F93CF93DF93CDB7DEB7CA1B50
:1009F000DB0B0FB6F894DEBF0FBECDBF09942A887B
:100A0000398848885F846E847D848C849B84AA8422
:100A1000B984C884DF80EE80FD800C811B81AA81AF
:100A2000B981CE0FD11D0FB6F894DEBF0FBECDBF7A
:100A3000ED01089550D0E0F09E37D8F09639B8F423
:100A40009E3848F4672F782F8827985FF9CF8695CE
:100A50007795679593959539D0F3B62FB1706B0F55
:100A6000711D811D20F4879577956795939502C038
:100A70001CC04CC0882371F4772321F09850872B39
:100A8000762F07C0662311F499270DC09051862B4D
:100A900070E060E02AF09A95660F771F881FDAF7FA
:100AA000880F9695879597F908959F3F31F091505B
:100AB00020F4879577956795B795880F911D969542
:100AC000879597F9089557FD9058440F551F59F091
:100AD0005F3F71F04795880F97FB991F61F09F3F2B
:100AE00079F087950895121613061406551FF2CF54
:100AF0004695F1DF08C0161617061806991FF1CFA4
:100B000086957105610508940895E894BB276627CA
:0C0B10007727CB0197F90895F894FFCFE8
:100B1C0000000000000000000001020203030303B8
:100B2C000404040404040404050505050505050571
:100B3C000505050505050505060606060606060651
:100B4C000606060606060606060606060606060639
:100B5C000606060606060606070707070707070721
:100B6C000707070707070707070707070707070709
:100B7C0007070707070707070707070707070707F9
:100B8C0007070707070707070707070707070707E9
:100B9C0007070707070707070808080808080808D1
:100BAC0008080808080808080808080808080808B9
:100BBC0008080808080808080808080808080808A9
:100BCC000808080808080808080808080808080899
:100BDC000808080808080808080808080808080889
:100BEC000808080808080808080808080808080879
:100BFC000808080808080808080808080808080869
:100C0C000808080808080808080808080808080858
:0A0C1C000808080808080808080086
:00000001FF
