:1000000033C0000039C0000037C0000035C0000018
:1000100033C0000031C000002FC000002DC0000020
:100020002BC0000029C0000027C0000025C0000030
:1000300023C0000021C000001FC000001DC0000040
:100040001BC0000019C0000017C0000015C0000050
:1000500013C0000011C000000FC000000DC0000060
:100060000BC0000009C0000011241FBECFEFD8E074
:10007000DEBFCDBF5BD026C1C3CFBC0140E850E09E
:1000800020E030E0FFEFB2E0E4E0A3E0CA01862325
:100090009723892B39F0F8B98E2F8A95F1F718B884
:1000A0008A2F06C0F8B98B2F8A95F1F718B88E2FD2
:1000B0008A95F1F7559547952F5F3F4F28303105C9
:1000C00029F70895EF92FF920F931F938C01CB01B4
:1000D0007A01D3DFC801D1DFC701CFDF1F910F91B4
:1000E000FF90EF900895CF92DF92EF92FF920F93DF
:1000F0001F93CF93DF936C017B018A01C0E0D0E0B6
:10010000C601B701A801DEDF2196C739D105C1F7C5
:1001100018B88BEE90E00197F1F7DF91CF911F9126
:100120000F91FF90EF90DF90CF9008954F925F92E4
:100130006F927F928F929F92AF92BF92CF92DF92F7
:10014000EF92FF920F931F93CF93DF938FEF87B9B7
:1001500018B88BEE90E00197F1F76BEE662E712CDC
:100160005CEC452E51E0552E80E090E060E070E0C0
:1001700040E050E0B8DF00E010E02FC0C815D9051E
:1001800031F0CA15DB0519F0C017D10719F48FEF4C
:1001900090E00EC0CC15DD0519F482E390E008C0B4
:1001A000CE15DF0519F48AE090E002C080E090E00F
:1001B00060E070E040E050E085DF2196C739D1056E
:1001C000E9F618B8C3010197F1F70F5F1F4F073920
:1001D000110519F406E910E05FC0C0E0D0E042E08C
:1001E000842E912C800E911E58010894A11CB11CE4
:1001F00068010894C108D1083EEFE32E3FEFF32ECB
:10020000E00EF11EBBCFC815D90519F48FEF90E0B1
:1002100028C0CA15DB0529F480E090E06FEF70E09C
:1002200022C0C017D10739F480E090E060E070E0B0
:100230004FEF50E01AC0CC15DD0539F480E090E0B6
:1002400060E070E042E350E010C0CE15DF0539F405
:1002500080E090E060E070E04AE050E006C080E0BE
:1002600090E060E070E040E050E02CDF2196C7397C
:10027000D10549F618B8C3010197F1F784EF91E071
:10028000F2013197F1F70197D9F7015010408FEF44
:100290000F3F180709F468CFC0E0D0E02EEF822EA0
:1002A0002FEF922E800E911E58010894A108B108DC
:1002B00068010894C11CD11C92E0E92EF12CE00EDB
:0802C000F11EA1CFF894FFCF5D
:00000001FF
